{
  "_format": "hh-sol-artifact-1",
  "contractName": "Receipt2",
  "sourceName": "contracts/Receipt2.sol",
  "abi": [
    {
      "inputs": [],
      "stateMutability": "nonpayable",
      "type": "constructor"
    },
    {
      "inputs": [
        {
          "internalType": "string",
          "name": "storeId",
          "type": "string"
        },
        {
          "internalType": "string",
          "name": "date",
          "type": "string"
        }
      ],
      "name": "createReceipt",
      "outputs": [],
      "stateMutability": "pure",
      "type": "function"
    },
    {
      "inputs": [],
      "name": "minter",
      "outputs": [
        {
          "internalType": "address",
          "name": "",
          "type": "address"
        }
      ],
      "stateMutability": "view",
      "type": "function"
    }
  ],
  "bytecode": "0x608060405234801561001057600080fd5b50336000806101000a81548173ffffffffffffffffffffffffffffffffffffffff021916908373ffffffffffffffffffffffffffffffffffffffff160217905550610317806100606000396000f3fe608060405234801561001057600080fd5b50600436106100365760003560e01c80630283fdba1461003b5780630754617214610057575b600080fd5b6100556004803603810190610050919061020d565b610075565b005b61005f61008f565b60405161006c91906102c6565b60405180910390f35b604051806040016040528083815260200182815250505050565b60008054906101000a900473ffffffffffffffffffffffffffffffffffffffff1681565b6000604051905090565b600080fd5b600080fd5b600080fd5b600080fd5b6000601f19601f8301169050919050565b7f4e487b7100000000000000000000000000000000000000000000000000000000600052604160045260246000fd5b61011a826100d1565b810181811067ffffffffffffffff82111715610139576101386100e2565b5b80604052505050565b600061014c6100b3565b90506101588282610111565b919050565b600067ffffffffffffffff821115610178576101776100e2565b5b610181826100d1565b9050602081019050919050565b82818337600083830152505050565b60006101b06101ab8461015d565b610142565b9050828152602081018484840111156101cc576101cb6100cc565b5b6101d784828561018e565b509392505050565b600082601f8301126101f4576101f36100c7565b5b813561020484826020860161019d565b91505092915050565b60008060408385031215610224576102236100bd565b5b600083013567ffffffffffffffff811115610242576102416100c2565b5b61024e858286016101df565b925050602083013567ffffffffffffffff81111561026f5761026e6100c2565b5b61027b858286016101df565b9150509250929050565b600073ffffffffffffffffffffffffffffffffffffffff82169050919050565b60006102b082610285565b9050919050565b6102c0816102a5565b82525050565b60006020820190506102db60008301846102b7565b9291505056fea264697066735822122094de9002d1b31948eef22d1159be96eb09966044fb54c32f5397c95bd86d2c4364736f6c634300080a0033",
  "linkReferences": {},
  "deployedLinkReferences": {}
}